:0400000057EF00F0C6
:100008009305930593059305930593059305930528
:100018009305930593059305930593059305930518
:100028009305930593059305930593059305930508
:10003800930593059305CD04BC0493059305930597
:10004800A7049305930593052B0093059305930542
:1000580093059305930593059305930593059305D8
:1000680093059305930593059305930593059305C8
:10007800930593052B009305930593052B002B00FF
:100088002B002B002B002B002B002B009305930536
:1000980069049305930593052B002B002B002B0077
:0A00A80093059305FF00BCEF09F07B
:10100000000000000000000000F0157210FA15004A
:10101000003A141A11526563656976652074657328
:10102000743A20547970652061206D65737361672F
:1010300065207468656E20707265737320656E74C8
:10104000657220286D617820313620636861727383
:10105000293A005472616E736D69742074657374FB
:101060000A00596F752074797065643A2000256311
:1010700000002650010FD96EDA6ADF6A3D01F9A738
:1010800044EF08F046EF08F057EF08F02650010F44
:10109000D96EDA6ADF8202D857EF08F00500FA6EDF
:1010A0004D50FD6E4E50FE6EFF6AFA5012003D012B
:1010B000F9A35DEF08F05FEF08F070EF08F026503D
:1010C000010FD96EDA6ADF8402D870EF08F00500EC
:1010D000FA6E4B50FD6E4C50FE6EFF6AFA501200D5
:1010E0002650010FD96EDA6ADF50D8B47AEF08F0D3
:1010F0007CEF08F08AEF08F002D888EF08F00500CE
:10110000FA6E4950FD6E4A50FE6EFF6AFA501200A8
:101110008CEF08F0B3EC0AF0120039019397720ECD
:101120000001646F100E656FFDEC0AF039019399B0
:101130003A0E0001646F140E656FF8EC0AF03D0181
:10114000EC6BED6BEE6BEF6BF06BF16BB00EF26F67
:10115000800EF36FF46B670EF56FF66BF76BF86B41
:10116000F96BFA6B500E0001646F160E656F07EC99
:101170000BF04E0E0001646F160E656F02EC0BF063
:101180003E0E0001646F160E656F0CEC0BF0236AC7
:10119000296A286A080E276E266A256A246A390198
:1011A000938712003901A9912B50D8B4DAEF08F0D7
:1011B000DCEF08F0F8EF08F0575059EC0AF040C0A7
:1011C0001BF041C01CF0000E1B24456EF80E1C20C5
:1011D000466E230E45026F00CCFF47F06F00D0FF34
:1011E00048F04602F350482647C01FF048C020F0A0
:1011F000565059EC0AF040C019F041C01AF0000EE8
:101200001924456EF80E1A20466E230E45026F0013
:10121000CCFF47F06F00D0FF48F04602F35048265D
:1012200047C01DF048C01EF0010E2A6E1100BE6AB4
:10123000BD6ABA6ABB6ABC6A070EC66E3F0EC26E52
:10124000C368C468C5683A0170697F0E606F5069F1
:10125000070E806F3E0E406F716B816B516B416B5F
:10126000616B5A6B5B6B6A6B6B6B7A6B7B6B826BC4
:10127000426B526B626B726B43695369636973694A
:10128000070E836F44695469646974690F0E846F33
:10129000C46B0D0E066F170EE56F12006F00E8FFAE
:1012A0003EF06F00ECFF3FF03901A49121C03CF00B
:1012B00022C03DF089EC0AF053505410D8B463EFCB
:1012C00009F065EF09F071EF09F002D871EF09F04C
:1012D0000500FA6E5350FD6E5450FE6EFF6AFA50D0
:1012E00012006000FFF0FBFF6000FBF0FAFF11004E
:1012F0006F00E8FF60F06F00ECFF61F04F5050109E
:10130000D8B485EF09F087EF09F093EF09F002D820
:1013100093EF09F00500FA6E4F50FD6E5050FE6ECF
:10132000FF6AFA501200600087F1FBFF600083F152
:10133000FAFF11006F00E8FF62F06F00ECFF63F04E
:1013400051505210D8B4A7EF09F0A9EF09F0B5EF4A
:1013500009F002D8B5EF09F00500FA6E5150FD6EA4
:101360005250FE6EFF6AFA50120060008FF1FBFFD0
:1013700060008BF1FAFF1100440EF66E160EF76E48
:10138000000EF86E09006F00D4FF55F009006F00E1
:10139000D4FF56F009006F00D4FF57F000EE01F0C3
:1013A0003B0EEE6AE806FDE1080ED56E000ED66E25
:1013B000000ED76E0001F1EF0AF0B36AB46AB56AA5
:1013C000B168B0683901A491B0506F00C4FE66F0F6
:1013D0000001676B66C067F0666B6611216E67512E
:1013E000226E39019481480E0001646F160E656FFC
:1013F00016EC0BF0010EB26E1200D28A000ED2BEB5
:10140000010E0001646FD29E550ED46EAA0ED46EEA
:10141000D490D76AD66A080ED56E550ED46EAA0E31
:10142000D46ED48064B102D0D29E01D0D28E390164
:1014300083898387898184811200080E276023EFC6
:101440000AF025EF0AF039EF0AF02850110FD96E93
:10145000DA6ADF503D01EA6F282A070E286433EF6D
:101460000AF035EF0AF036EF0AF0286A272A3BEF38
:101470000AF03901939912003E01DE6BDF6BE06BDD
:10148000E16BE46BE56BEA6BEC6B040EF16F010E44
:10149000F36FF46BF56BF66BF76BF96BFA6BFB6B39
:1014A000FC6B030EFD6FFE6B030EFF6F840EF86F77
:1014B0001200446E600013F1F1FE3E01F88FF89DBA
:1014C000F881F8B166EF0AF068EF0AF061EF0AF010
:1014D000F051436E426AEF514224406E000E4320A9
:1014E000416E1200FDEC09F0DEEC0AF017EC09F099
:1014F000E8EC0AF01BEC0BF09FEC0AF03CEC0AF075
:10150000D2EC0AF0C6EC0AF0DDEC09F08DEC08F044
:101510001200B2A48EEF0AF090EF0AF099EF0AF0F1
:10152000B2903D50B16E6000F3F0B0FFB2809EEF1C
:101530000AF03D50B16E6000F3F0B0FF1200040EEF
:10154000966E956A976A1E0E936E926A3901A991FA
:101550009981000E0001646F000E656F11EC0BF0B5
:10156000B00E946E12002650090FD96EDA6A6F0021
:10157000A3F7DFFF262A070E2664C1EF0AF0C3EFA8
:101580000AF0C4EF0AF0266A242A1200010EAE6E99
:10159000AD6AAF6A630EAB6EAA6A3901A495800E7C
:1015A000AC6E1200800E6E6E150E6D6EC00E6C6EFF
:1015B0003F015F51FC0B01095F6F12003901C06BE5
:1015C000C16BC26BC36BC46BC56BC66BC76B1200C0
:1015D000620E3901D96FDB6BDD6B060EDF6FDE6BE0
:1015E000120072EC0AF0D28EF4EF0AF057EF00F01E
:1015F00064C04FF065C050F0120064C051F065C087
:1016000052F0120064C04BF065C04CF0120064C090
:101610004DF065C04EF0120064C049F065C04AF05C
:10162000120064C068F065C069F0120064C053F035
:1016300065C054F01200820E3E01C16F1200B3EC7F
:071640000AF012005304023E
:0216480012008E
:06164C0011001200120063
:020000040030CA
:0A000000ECFFFFFF9FFFFFFFFFFF73
:00000001FF
